:10000300E4D12FB83A6C59070F74E2D1A6CB9538D7
:1000130041E8D62BFC973A50FC8249175B3EA06D12
:10002300F18E6B34972DC05A3D47F28EC01A69B5D5
:100033000E7BA4D158C6932FD8A13F42B67C05E9C5
:10004300A09E63F51DC7B428D709346A285ECBF197
:10005300D6498F30B12C5AE71AD069874FE3B52CB4
:100063007DE3069A1285BC4FD8B56F03472C1AE976
:10007300A690CB7DF13E52843F06A1D8945BC72E58
:100083002C417AB6853FD0E9EB2C47D150FA39861B
:10009300421BAD78F9C5630EB8C71E2D6F09A45373
:1000A300C1AF92680D34E75BAF427C9561DE0B38DC
:1000B3009EF528C3704A1DB6432C95FABE17608D72
:1000C3004B2EF08D3C975A61D0B7491AE35C2F86CB
:1000D30014BDC37EAF6805926BD814A7950FE23C9D
:1000E300D2846FB1A93E50C71FD8A374C56B0E92BB
:1000F3007B419CE206ADF35821E74A8DFC90356BBA
:10010300040620010203040504050607080908097B
:100113000A0B0C0D0C0D0E0F1011101112131415E8
:1001230014151617181918191A1B1C1D1C1D1E1F30
:1001330020010404100714151D0C1C11010F171ABC
:1001430005121F0A0208180E201B0309130D1E06B1
:10015300160B041908083A322A221A120A023C34EE
:100163002C241C140C043E362E261E160E06403874
:1001730030282018100839312921191109013B337E
:100183002B231B130B033D352D251D150D053F3764
:100193002F271F170F07080828083010381840208A
:1001A30027072F0F37173F1F26062E0E36163E1E24
:1001B30025052D0D35153D1D24042C0C34143C1C34
:1001C30023032B0B33133B1B22022A0A32123A1A44
:1001D3002101290931113919080739312921191147
:1001E30009013A322A221A120A023B332B231B1328
:1001F3000B033C342C243F372F271F170F073E36A2
:100203002E261E160E063D352D251D150D051C1417
:100213000C0407060E110B180105031C0F06150A23
:1002230017130C041A0810071B140D0229341F2579
:100233002F371E28332D21302C31273822352E2AF3
:1002430032241D20080840400106020304054040F3
:10025300070C08090A0B40400D120E0F1011404005
:100263001318141516174040191E1A1B1C1D404065
:100273001F24202122234040252A262728294040C5
:100283002B302C2D2E2F0707020304050607080920
:100293000A0B0C0D0E0F1011121314151617181943
:1002A3001A1B1C011E1F202122232425262728294F
:1002B3002A2B2C2D2E2F3031323334353637381D3F
:1002C30007071C0102030405060708090A0B0C0DA6
:1002D3000E0F101112131415161718191A1B381DA7
:1002E3001E1F202122232425262728292A2B2C2DB3
:1002F3002E2F3031323334353637010102020202F8
:1003030002020102020202020201000001020202D1
:0C031300020202010202020202020100CA
:10085D00154815481548A848A60308A60208A6017C
:06086D00E54824FBF548FC
:100873002405F8860308E6FA08E6F9900001120653
:1008830030A848F6E92402F9E43AFAE5482405F8E1
:10089300A60308A60208A601A84808E4F6A948A8E2
:0A08A3004808E6C397400302096EFF
:1008AD00E5482404F8E4F6A8480808F6A84808081E
:1008BD00E6C394084003020946E5482405F886037B
:1008CD00080806E618860270010614F912061714B8
:1008DD00FFE5482403F8A607E5482404F8C000E620
:1008ED0025E0D000F6E5482403F8E6FF1313135472
:1008FD001FFEE5482408F8860308E6FA08E6F98E97
:10090D0082758300120630FD7C00EF5407FF748062
:10091D007E00A807088006CEA2E713CE13D8F8FFF5
:10092D00EE5CFEEF5D4E6009E5482404F874014667
:10093D00F6A8480808060208B9E5482404F8E6FFB9
:10094D00E548240BF8860308E6FA08E6F9A84808F6
:0A095D00E6F582758300EF12066FC5
:07096700A84808060208A0E1
:07096E00E548240EF54822C4
:090A84007B00E5482406F97A0024
:100A8D00154815481548A848A60308A60208A6014A
:060A9D00E54824F9F548CC
:100AA3002407F8860308E6FA08E6F9A8487C007DDF
:100AB300007E007F071205F1E5482407F886030846
:100AC300E6FA08E6F9154815481548A848A60308A4
:100AD300A60208A601E5482403154815481548A8A9
:100AE30048760008760008F67BFF7A0279891208B7
:010AF3005DA5
:070AF400E548240AF5482241
:100AFB00154815481548A848A60308A60208A601DC
:060B0B00E54824F9F5485D
:100B11002407F8860308E6FA08E6F9A8487C007D70
:100B2100007E007F071205F1E5482407F8860308D7
:100B3100E6FA08E6F9154815481548A848A6030835
:100B4100A60208A601E5482403154815481548A83A
:100B510048760008760008F67BFF7A0279C312080E
:010B61005D36
:070B6200E548240AF54822D2
:100B6900154815481548A848A60308A60208A6016D
:060B7900E54824F8F548F0
:100B7F002408F8860308E6FA08E6F9A8487C007D01
:100B8F00007E007F081205F1E5482408F886030867
:100B9F00E6FA08E6F9154815481548A848A60308C7
:100BAF00A60208A601E5482403154815481548A8CC
:100BBF0048760008760008F67BFF7A02794712081C
:010BCF005DC8
:070BD000E548240BF5482263
:100BD700154815481548A848A60308A60208A601FF
:080BE7001548A848A6071548AF
:100BEF00A84808E6FFC313FEA8480808860308E6CE
:100BFF00FA08E6F98E82758300120630A848F6EFE0
:100C0F00A84830E003E68002E6C4540FFFA848EF7F
:010C1F00F6DE
:070C2000E5482405F5482218
:1006E200154815481548A848A60308A60208A601F9
:1006F200E54824FCF548F81206BDE54824EBF54828
:10070200F8081206C900000000E54824091548153A
:10071200481548A848760008760008F6E5482418E7
:10072200154815481548A848760008760008F67B53
:10073200FF7A01790312085DA848E4F6A848E6C3E7
:100742009407503CE6FFFD7B00E54824092DF9E4BF
:1007520033FAC003C002C001120617FEE54824198D
:10076200F8860308E6FA08E6F98F82758300120616
:10077200306ED001D002D00312065DA8480680BCBC
:100782007B00E5482409F97A00120B69E548241137
:10079200F876FF087600087603A848E4F6A848E64B
:0507A200C3940850782B
:1007A700E5482411F8860308E6FA08E6F9C003C00D
:1007B70002C001A848E6FF7B00E54824092FF9E4B9
:1007C70033FA120617FFD001D002D003120BD7E578
:1007D700482414F8A607A84808C0001206A47804FD
:1007E700120691D0001206BDA84808C0001206A440
:1007F700C007E5482414F8E6FBD007EF4BFFECD021
:10080700001206BDE5482411F80808742026F618DA
:03081700E436F6CE
:10081A00A848068080E5482405154815481548A8C3
:10082A0048760008760008F6E54824041548154875
:10083A001548A848760008760008F67BFF7A017901
:0C084A003512085DE5482405F81206A4EC
:07085600E548241CF54822CF
:10031F00154815481548A848A60308A60208A601BF
:06032F00E54824E6F54854
:100335002412154815481548A8487600087600087F
:10034500F6E5482420F8860308E6FA08E6F9154894
:1003550015481548A848A60308A60208A6017BFF6C
:100365007A01795712085DE54824061548154815A0
:1003750048A848760008760008F6E5482423F8865C
:100385000308E6FA08E6F9154815481548A848A6E9
:100395000308A60208A6017BFF7A0179DB12085D36
:1003A500E548240DF8E4F6E548240DF8E6C3941075
:1003B5004003020478120A84E548240DF8E6900209
:1003C500FD93B40203120A84A94815481548154837
:1003D500A848760008760008A601E54824091548CE
:1003E50015481548A848760008760008F67BFF7A78
:1003F50002791512085DE5482412F8C0001206A41A
:10040500C004C005C006C0077B00A9487A00E548BE
:100415002416F81206A41206E2A804A905AA06AB3A
:1004250007D007D006D005D004EF6BFFEE6AFEEDCE
:1004350069FDEC68FCD0001206BDE5482412F812EF
:1004450006A4E548240EF81206BDE5482416F81260
:1004550006A4E5482412F81206BDE548240EF81254
:1004650006A4E5482416F81206BDE548240DF8064D
:100475000203ACE5482416F8C0001206A4E548249A
:1004850012F81206B0EF6BFFEE6AFEED69FDEC683F
:10049500FCD0001206BDE5482412F8C0001206A4DF
:1004A500E5482416F81206B0EF6BFFEE6AFEED691B
:1004B500FDEC68FCD0001206BDE5482416F8C00026
:1004C5001206A4E5482412F81206B0EF6BFFEE6A97
:1004D500FEED69FDEC68FCD0001206BDE548241A66
:1004E500F8860308E6FA08E6F9154815481548A8F8
:1004F50048A60308A60208A601E5482415154815CF
:10050500481548A848760008760008F67BFF7A016A
:05051500799912085D58
:07051A00E5482423F5482207
:100C740077656C636F6D65000D456E746572204B0E
:100C840065793A20000D000D456E74657220506C34
:100C940061696E5F546578743A20000D4369706829
:0D0CA40065725F546578742069733A200012
:10097500120D1B120CF37BFF7A0C7974120CB1E487
:10098500F5A0F5905390FE7BFF7A0C797C120CB1A3
:05099500E4F528F5293E
:0C099A00120D138F4474102529F8A64498
:1009A6000529E52970020528C39408E52894004026
:1009B600E37BFF7A0C7989120CB17BFF7A0C798B79
:0809C600120CB1E4F528F5293B
:0C09CE00120D138F4474082529F8A6446C
:1009DA000529E52970020528C39408E528940040F2
:1009EA00E3154815481548A84876000876000876A1
:1009FA0010154815481548A8487600087600087664
:100A0A00087B007A00792012031F7BFF7A0C799FFA
:100A1A00120CB1E4F528F52974202529F8E6FF120D
:100A2A000D0B0529E52970020528C39408E52894C9
:100A3A000040E575A0FFC2907B057DFF7FA5120CE3
:100A4A00D5D290E4F528F52974202529F8E6F5A0F1
:100A5A00C2907B057DFF7FA5120CD5D2900529E5B2
:100A6A002970020528C39408E528940040DA7BFF20
:0A0A7A007A0C7989120CB10209C050
:040D1B0075890122B3
:100CD500E4FEC3EB6480F8EE64809850108D8A8F33
:0D0CE5008CD28C308DFDC28CC28D0E80E54E
:010CF20022DF
:0C0CF300438920759850758DFDD28E222B
:080D0B008F993099FDC2992275
:060CB1008B458A468947CD
:100CB700E4FDFCAB45AA46A9478D828C831206301A
:0D0CC700FF600A120D0B0DBD00010C80E650
:010CD40022FD
:070D13003098FDAF99C29872
:010D1A0022B6
:060C2700154815481548B0
:100C2D00A848760008760008762AA84808087401B6
:100C3D0026F618E436F6120D13A848860308E6FAD0
:100C4D0008E6F9EF12065DA848860308E6FA08E6FD
:100C5D00F9120617B40DD3E412065DFB7A00792B59
:070C6D000548054805482277
:03000000020CFFF0
:0C0CFF00787FE4F6D8FD75814802097585
:10052100E709F608DFFA8046E709F208DFFA803EBC
:1005310088828C83E709F0A3DFFA8032E309F608A9
:10054100DFFA8078E309F208DFFA807088828C8311
:10055100E309F0A3DFFA806489828A83E0A3F608C5
:10056100DFFA805889828A83E0A3F208DFFA804C9F
:1005710080D280FA80C680D4806980F28033801076
:1005810080A680EA809A80A880DA80E280CA8033DF
:1005910089828A83ECFAE493A3C8C582C8CCC58357
:1005A100CCF0A3C8C582C8CCC583CCDFE9DEE78027
:1005B1000D89828A83E493A3F608DFF9ECFAA9F0A6
:1005C100EDFB2289828A83ECFAE0A3C8C582C8CCFC
:1005D100C583CCF0A3C8C582C8CCC583CCDFEADE15
:1005E100E880DB89828A83E493A3F208DFF980CC77
:1005F10088F0EF60010E4E60C388F0ED2402B40470
:100601000050B9F582EB2402B4040050AF23234516
:06061100822390057173C5
:10061700BB010689828A83E0225002E722BBFE02E1
:09062700E32289828A83E4932214
:10063000BB010CE58229F582E5833AF583E022507F
:1006400006E92582F8E622BBFE06E92582F8E222C9
:0D065000E58229F582E5833AF583E49322E3
:10065D00BB010689828A83F0225002F722BBFE017C
:02066D00F32276
:10066F00F8BB010DE58229F582E5833AF583E8F0C1
:10067F00225006E92582C8F622BBFE05E92582C86D
:02068F00F22255
:10069100E8600FEFC333FFEE33FEED33FDEC33FCC7
:0306A100D8F1226B
:0C06A400E6FC08E6FD08E6FE08E6FF2282
:0D06B000E6FB08E6F908E6FA08E6CBF822BA
:0C06BD00ECF608EDF608EEF608EFF62269
:1006C900D083D082E493F608740193F608740293F8
:0906D900F608740393F67404732F
:00000001FF
