:10000600E4D12FB83A6C59070F74E2D1A6CB9538D4
:1000160041E8D62BFC973A50FC8249175B3EA06D0F
:10002600F18E6B34972DC05A3D47F28EC01A69B5D2
:100036000E7BA4D158C6932FD8A13F42B67C05E9C2
:10004600A09E63F51DC7B428D709346A285ECBF194
:10005600D6498F30B12C5AE71AD069874FE3B52CB1
:100066007DE3069A1285BC4FD8B56F03472C1AE973
:10007600A690CB7DF13E52843F06A1D8945BC72E55
:100086002C417AB6853FD0E9EB2C47D150FA398618
:10009600421BAD78F9C5630EB8C71E2D6F09A45370
:1000A600C1AF92680D34E75BAF427C9561DE0B38D9
:1000B6009EF528C3704A1DB6432C95FABE17608D6F
:1000C6004B2EF08D3C975A61D0B7491AE35C2F86C8
:1000D60014BDC37EAF6805926BD814A7950FE23C9A
:1000E600D2846FB1A93E50C71FD8A374C56B0E92B8
:1000F6007B419CE206ADF35821E74A8DFC90356BB7
:100106000406200102030405040506070809080978
:100116000A0B0C0D0C0D0E0F1011101112131415E5
:1001260014151617181918191A1B1C1D1C1D1E1F2D
:1001360020010404100714151D0C1C11010F171AB9
:1001460005121F0A0208180E201B0309130D1E06AE
:10015600160B041908083A322A221A120A023C34EB
:100166002C241C140C043E362E261E160E06403871
:1001760030282018100839312921191109013B337B
:100186002B231B130B033D352D251D150D053F3761
:100196002F271F170F070808280830103818402087
:1001A60027072F0F37173F1F26062E0E36163E1E21
:1001B60025052D0D35153D1D24042C0C34143C1C31
:1001C60023032B0B33133B1B22022A0A32123A1A41
:1001D6002101290931113919080739312921191144
:1001E60009013A322A221A120A023B332B231B1325
:1001F6000B033C342C243F372F271F170F073E369F
:100206002E261E160E063D352D251D150D051C1414
:100216000C0407060E110B180105031C0F06150A20
:1002260017130C041A0810071B140D0229341F2576
:100236002F371E28332D21302C31273822352E2AF0
:1002460032241D20080840400106020304054040F0
:10025600070C08090A0B40400D120E0F1011404002
:100266001318141516174040191E1A1B1C1D404062
:100276001F24202122234040252A262728294040C2
:100286002B302C2D2E2F070702030405060708091D
:100296000A0B0C0D0E0F1011121314151617181940
:1002A6001A1B1C011E1F202122232425262728294C
:1002B6002A2B2C2D2E2F3031323334353637381D3C
:1002C60007071C0102030405060708090A0B0C0DA3
:1002D6000E0F101112131415161718191A1B381DA4
:1002E6001E1F202122232425262728292A2B2C2DB0
:1002F6002E2F3031323334353637010102020202F5
:1003060002020102020202020201000001020202CE
:0C031600020202010202020202020100C7
:1009D100154315431543A843A60308A60208A6011B
:1009E100E54324E6F5432412154315431543A84373
:1009F100760008760008F6E5432420F8860308E629
:100A0100FA08E6F9154315431543A843A60308A6BA
:0A0A11000208A6017BFF7A01795A62
:100A1B00154315431543A843A60308A60208A601D0
:060A2B00E54324FBF54346
:100A31002405F8860308E6FA08E6F9900001120495
:100A410031A843F6E92402F9E43AFAE5432405F82A
:100A5100A60308A60208A601A84308E4F6A943A82C
:0A0A61004308E6C3974003020B2C84
:100A6B00E5432404F8E4F6A8430808F6A84308086D
:100A7B00E6C394084003020B04E5432405F8860300
:100A8B00080806E618860270010614F912041814F9
:100A9B00FFE5432403F8A607E5432404F8C000E66A
:100AAB0025E0D000F6E5432403F8E6FF13131354B7
:100ABB001FFEE5432408F8860308E6FA08E6F98EDC
:100ACB0082758300120431FD7C00EF5407FF7480A4
:100ADB007E00A807088006CEA2E713CE13D8F8FF36
:100AEB00EE5CFEEF5D4E6009E5432404F8740146AD
:100AFB00F6A843080806020A77E5432404F8E6FF44
:100B0B00E543240BF8860308E6FA08E6F9A8430840
:0A0B1B00E6F582758300EF12047006
:070B2500A8430806020A5E66
:070B2C00E543240EF543220E
:090CA8007B00E5432406F97A0003
:100CB100154315431543A843A60308A60208A60138
:060CC100E54324F9F543B0
:100CC7002407F8860308E6FA08E6F9A8437C007DBE
:100CD700007E007F071203F2E5432407F886030826
:100CE700E6FA08E6F9154315431543A843A6030892
:100CF700A60208A601E5432403154315431543A897
:100D070043760008760008F67BFF7A02798C120A90
:010D17001BC0
:070D1800E543240AF5432224
:090D1F007B00E543240BF97A0086
:100D2800154315431543A843A60308A60208A601C0
:060D3800E54324F9F54338
:100D3E002407F8860308E6FA08E6F9A8437C007D46
:100D4E00007E007F071203F2E5432407F8860308AE
:100D5E00E6FA08E6F9154315431543A843A603081A
:100D6E00A60208A601E5432403154315431543A81F
:100D7E0043760008760008F67BFF7A0279C6120ADF
:010D8E001B49
:070D8F00E543240AF54322AD
:100D9600154315431543A843A60308A60208A60152
:060DA600E54324F8F543CB
:100DAC002408F8860308E6FA08E6F9A8437C007DD7
:100DBC00007E007F081203F2E5432408F88603083E
:100DCC00E6FA08E6F9154315431543A843A60308AC
:100DDC00A60208A601E5432403154315431543A8B1
:100DEC0043760008760008F67BFF7A02794A120AED
:010DFC001BDB
:070DFD00E543240BF543223E
:100E5700154315431543A843A60308A60208A60190
:080E67001543A843A60715433B
:100E6F00A84308E6FFC313FEA8430808860308E655
:100E7F00FA08E6F98E82758300120431A843F6EF63
:100E8F00A84330E003E68002E6C4540FFFA843EF07
:010E9F00F65C
:070EA000E5432405F54322A0
:10085600154315431543A843A60308A60208A60197
:10086600E54324FCF543F81204BEE54324EBF543C7
:10087600F8081204CA00000000E5432409154315D0
:10088600431543A843760008760008F6E543241886
:10089600154315431543A843760008760008F67BF2
:1008A600FF7A017906120A1BA843E4F6A843E6C3B9
:1008B6009407503CE6FFFD7B00E54324092DF9E44F
:1008C60033FAC003C002C001120418FEE54324191E
:1008D600F8860308E6FA08E6F98F827583001204A3
:1008E600316ED001D002D00312045EA8430680BC4C
:1008F6007B00E5432409F97A00120D96E54324119D
:10090600F876FF087600087606A843E4F6A843E6DC
:05091600C394085078B5
:10091B00E5432411F8860308E6FA08E6F9C003C09C
:10092B0002C001A843E6FF7B00E54324092FF9E44D
:10093B0033FA120418FFD001D002D003120E57E580
:10094B00432414F8A607A84308C0001204A5780492
:10095B00120492D0001204BEA84308C0001204A5D2
:10096B00C007E5432414F8E6FBD007EF4BFFECD0B0
:10097B00001204BEE5432411F80808742026F6186B
:03098B00E436F659
:10098E00A843068080E5432405154315431543A867
:10099E0043760008760008F6E54324041543154314
:1009AE001543A843760008760008F67BFF7A017996
:0C09BE0038120A1BE5432405F81204A5BA
:0709CA00E543241CF5432264
:10069E001209D1E5432406154315431543A84376A5
:1006AE000008760008F6E5432423F8860308E6FAE8
:1006BE0008E6F9154315431543A843A60308A602F9
:1006CE0008A6017BFF7A0179DE120A1BE543240D91
:1006DE00F8E4F6E543240DF8E6C394104003020750
:1006EE00AD120CA8E543240DF8E690030093B40276
:1006FE0003120CA8A943154315431543A8437600CE
:10070E0008760008A601E543240915431543154351
:10071E00A843760008760008F67BFF7A0279181255
:10072E000A1BE5432412F8C0001204A5C004C0053C
:10073E00C006C0077B00A9437A00E5432416F812D1
:10074E0004A5120856A804A905AA06AB07D007D01F
:10075E0006D005D004EF6BFFEE6AFEED69FDEC6886
:10076E00FCD0001204BEE5432412F81204A5E543A2
:10077E00240EF81204BEE5432416F81204A5E54330
:10078E002412F81204BEE543240EF81204A5E54324
:10079E002416F81204BEE543240DF8060206E1E520
:1007AE00432416F8C0001204A5E5432412F81204DF
:1007BE00B1EF6BFFEE6AFEED69FDEC68FCD0001246
:1007CE0004BEE5432412F8C0001204A5E543241626
:1007DE00F81204B1EF6BFFEE6AFEED69FDEC68FCFA
:1007EE00D0001204BEE5432416F8C0001204A5E59D
:1007FE00432412F81204B1EF6BFFEE6AFEED69FDB1
:10080E00EC68FCD0001204BEE543241AF8860308F7
:10081E00E6FA08E6F9154315431543A843A603085F
:10082E00A60208A601E5432415154315431543A852
:10083E0043760008760008F67BFF7A01799C120A4F
:01084E001B8E
:07084F00E5432423F54322D9
:1004E3001209D1E543240B154315431543A843765D
:1004F3000008760008F6E5432423F8860308E6FAA5
:1005030008E6F9154315431543A843A60308A602B5
:1005130008A6017BFF7A0179DE120A1BA843E4F6E1
:10052300A843E6FFC3941040030205F5EF900311BF
:1005330093FF6016EFB40102800DA843E690031108
:1005430093B40206120D1F120D1FE5432405154334
:1005530015431543A843760008760008F6E54324BF
:100563000E154315431543A843760008760008F695
:100573007BFF7A027918120A1BE5432412F8C000A4
:100583001204A5C004C005C006C0077B00E54324D0
:1005930005F97A00E5432416F81204A5120856A8B3
:1005A30004A905AA06AB07D007D006D005D004EFEF
:1005B3006BFFEE6AFEED69FDEC68FCD0001204BE31
:1005C300E5432412F81204A5A843081204BEE54328
:1005D3002416F81204A5E5432412F81204BEA84316
:1005E300081204A5E5432416F81204BEA843060224
:1005F3000523E5432416F8C0001204A5E54324129D
:10060300F81204B1EF6BFFEE6AFEED69FDEC68FCD6
:10061300D0001204BEE5432412F8C0001204A5E57D
:10062300432416F81204B1EF6BFFEE6AFEED69FD89
:10063300EC68FCD0001204BEE5432416F8C0001297
:1006430004A5E5432412F81204B1EF6BFFEE6AFE32
:10065300ED69FDEC68FCD0001204BEE543241AF8F2
:10066300860308E6FA08E6F9154315431543A8433C
:10067300A60308A60208A601E5432415154315435E
:100683001543A843760008760008F67BFF7A0179C4
:040693009C120A1B90
:07069700E5432423F5432293
:100E040077656C636F6D65000D456E746572204B7C
:100E140065793A20000D4B657920776173207365FD
:100E240074202120000D000D4369706865725F54C1
:100E34006578742052656365697665642049733A00
:100E440020000D506C61696E2054657874206973BC
:030E54003A200041
:090F5600011100011A000110FF55
:100B330075A0FFD2B2D2AFD2A8D288120F4A7BFFE0
:100B43007A0E7904120F267BFF7A0E790C120F2688
:050B5300E4F523F52488
:0C0B5800120F688F3F74122524F8A63F8E
:100B64000524E52470020523C39408E5239400407A
:100B7400E37511017BFF7A0E7919120F267BFF7A38
:100B84000E7929120F26E51A60FCE51160F87BFF47
:100B94007A0E792B120F26E4F523F524741B2524F1
:100BA400F8E6FF120F600524E52470020523C394C0
:100BB40008E523940040E5154315431543A84376FF
:100BC40000087600087612154315431543A84376AA
:100BD4000008760008761B7B007A0079081204E38B
:100BE4007BFF7A0E7946120F26E4F523F524740868
:100BF4002524F8E6FF120F600524E524700205237E
:100C0400C39408E523940040E5E4F51A7BFF7A0ECB
:080C14007929120F26020B8A58
:03000300020EF4F6
:100EF400C0E0C0D075D000C000C007E510B4FF0446
:100F040005108015AF10741B2FF8A6A00510E5106E
:100F1400B40806751A017510FFD007D000D0D0D0E0
:020F2400E032B9
:0C0F4A00438920759850758DFDD28E22D1
:080F60008F993099FDC299221E
:060F26008B408A41894264
:100F2C00E4FDFCAB40AA41A9428D828C83120431B2
:0D0F3C00FF600A120F600DBD00010C80E681
:010F49002285
:070F68003098FDAF99C2981B
:010F6F00225F
:060EA7001543154315433D
:100EAD00A8437600087600087625A8430808740143
:100EBD0026F618E436F6120F68A843860308E6FAFC
:100ECD0008E6F9EF12045EA843860308E6FA08E681
:100EDD00F9120418B40DD3E412045EFB7A007926DE
:070EED000543054305432204
:03000000020C1CD3
:0C0C1C00787FE4F6D8FD758143020C637C
:10032200E709F608DFFA8046E709F208DFFA803EBD
:1003320088828C83E709F0A3DFFA8032E309F608AA
:10034200DFFA8078E309F208DFFA807088828C8312
:10035200E309F0A3DFFA806489828A83E0A3F608C6
:10036200DFFA805889828A83E0A3F208DFFA804CA0
:1003720080D280FA80C680D4806980F28033801077
:1003820080A680EA809A80A880DA80E280CA8033E0
:1003920089828A83ECFAE493A3C8C582C8CCC58358
:1003A200CCF0A3C8C582C8CCC583CCDFE9DEE78028
:1003B2000D89828A83E493A3F608DFF9ECFAA9F0A7
:1003C200EDFB2289828A83ECFAE0A3C8C582C8CCFD
:1003D200C583CCF0A3C8C582C8CCC583CCDFEADE16
:1003E200E880DB89828A83E493A3F208DFF980CC78
:1003F20088F0EF60010E4E60C388F0ED2402B40471
:100402000050B9F582EB2402B4040050AF23234517
:06041200822390037273C7
:10041800BB010689828A83E0225002E722BBFE02E2
:09042800E32289828A83E4932215
:10043100BB010CE58229F582E5833AF583E0225080
:1004410006E92582F8E622BBFE06E92582F8E222CA
:0D045100E58229F582E5833AF583E49322E4
:10045E00BB010689828A83F0225002F722BBFE017D
:02046E00F32277
:10047000F8BB010DE58229F582E5833AF583E8F0C2
:10048000225006E92582C8F622BBFE05E92582C86E
:02049000F22256
:10049200E8600FEFC333FFEE33FEED33FDEC33FCC8
:0304A200D8F1226C
:0C04A500E6FC08E6FD08E6FE08E6FF2283
:0D04B100E6FB08E6F908E6FA08E6CBF822BB
:0C04BE00ECF608EDF608EEF608EFF6226A
:1004CA00D083D082E493F608740193F608740293F9
:0904DA00F608740393F674047330
:100C2800020B33E493A3F8E493A34003F68001F2A4
:100C380008DFF48029E493A3F85407240CC8C333CD
:100C4800C4540F4420C8834004F456800146F6DF9C
:100C5800E4800B0102040810204080900F56E47EC7
:100C6800019360BCA3FF543F30E509541FFEE49391
:100C7800A360010ECF54C025E060A840B8E493A358
:100C8800FAE493A3F8E493A3C8C582C8CAC583CA83
:100C9800F0A3C8C582C8CAC583CADFE9DEE780BE3B
:010F5F000091
:00000001FF
